{
  "_format": "hh-sol-artifact-1",
  "contractName": "NFT",
  "sourceName": "contracts/NFT.sol",
  "abi": [
    {
      "inputs": [],
      "stateMutability": "nonpayable",
      "type": "constructor"
    },
    {
      "anonymous": false,
      "inputs": [
        {
          "indexed": true,
          "internalType": "address",
          "name": "owner",
          "type": "address"
        },
        {
          "indexed": true,
          "internalType": "address",
          "name": "approved",
          "type": "address"
        },
        {
          "indexed": true,
          "internalType": "uint256",
          "name": "tokenId",
          "type": "uint256"
        }
      ],
      "name": "Approval",
      "type": "event"
    },
    {
      "anonymous": false,
      "inputs": [
        {
          "indexed": true,
          "internalType": "address",
          "name": "owner",
          "type": "address"
        },
        {
          "indexed": true,
          "internalType": "address",
          "name": "operator",
          "type": "address"
        },
        {
          "indexed": false,
          "internalType": "bool",
          "name": "approved",
          "type": "bool"
        }
      ],
      "name": "ApprovalForAll",
      "type": "event"
    },
    {
      "anonymous": false,
      "inputs": [
        {
          "indexed": true,
          "internalType": "address",
          "name": "previousOwner",
          "type": "address"
        },
        {
          "indexed": true,
          "internalType": "address",
          "name": "newOwner",
          "type": "address"
        }
      ],
      "name": "OwnershipTransferred",
      "type": "event"
    },
    {
      "anonymous": false,
      "inputs": [
        {
          "indexed": true,
          "internalType": "address",
          "name": "from",
          "type": "address"
        },
        {
          "indexed": true,
          "internalType": "address",
          "name": "to",
          "type": "address"
        },
        {
          "indexed": true,
          "internalType": "uint256",
          "name": "tokenId",
          "type": "uint256"
        }
      ],
      "name": "Transfer",
      "type": "event"
    },
    {
      "inputs": [
        {
          "internalType": "address",
          "name": "to",
          "type": "address"
        },
        {
          "internalType": "uint256",
          "name": "tokenId",
          "type": "uint256"
        }
      ],
      "name": "approve",
      "outputs": [],
      "stateMutability": "nonpayable",
      "type": "function"
    },
    {
      "inputs": [
        {
          "internalType": "address",
          "name": "owner",
          "type": "address"
        }
      ],
      "name": "balanceOf",
      "outputs": [
        {
          "internalType": "uint256",
          "name": "",
          "type": "uint256"
        }
      ],
      "stateMutability": "view",
      "type": "function"
    },
    {
      "inputs": [
        {
          "internalType": "uint256",
          "name": "tokenId",
          "type": "uint256"
        }
      ],
      "name": "getApproved",
      "outputs": [
        {
          "internalType": "address",
          "name": "",
          "type": "address"
        }
      ],
      "stateMutability": "view",
      "type": "function"
    },
    {
      "inputs": [
        {
          "internalType": "address",
          "name": "owner",
          "type": "address"
        },
        {
          "internalType": "address",
          "name": "operator",
          "type": "address"
        }
      ],
      "name": "isApprovedForAll",
      "outputs": [
        {
          "internalType": "bool",
          "name": "",
          "type": "bool"
        }
      ],
      "stateMutability": "view",
      "type": "function"
    },
    {
      "inputs": [],
      "name": "mint",
      "outputs": [],
      "stateMutability": "nonpayable",
      "type": "function"
    },
    {
      "inputs": [],
      "name": "name",
      "outputs": [
        {
          "internalType": "string",
          "name": "",
          "type": "string"
        }
      ],
      "stateMutability": "view",
      "type": "function"
    },
    {
      "inputs": [],
      "name": "owner",
      "outputs": [
        {
          "internalType": "address",
          "name": "",
          "type": "address"
        }
      ],
      "stateMutability": "view",
      "type": "function"
    },
    {
      "inputs": [
        {
          "internalType": "uint256",
          "name": "tokenId",
          "type": "uint256"
        }
      ],
      "name": "ownerOf",
      "outputs": [
        {
          "internalType": "address",
          "name": "",
          "type": "address"
        }
      ],
      "stateMutability": "view",
      "type": "function"
    },
    {
      "inputs": [],
      "name": "renounceOwnership",
      "outputs": [],
      "stateMutability": "nonpayable",
      "type": "function"
    },
    {
      "inputs": [
        {
          "internalType": "address",
          "name": "from",
          "type": "address"
        },
        {
          "internalType": "address",
          "name": "to",
          "type": "address"
        },
        {
          "internalType": "uint256",
          "name": "tokenId",
          "type": "uint256"
        }
      ],
      "name": "safeTransferFrom",
      "outputs": [],
      "stateMutability": "nonpayable",
      "type": "function"
    },
    {
      "inputs": [
        {
          "internalType": "address",
          "name": "from",
          "type": "address"
        },
        {
          "internalType": "address",
          "name": "to",
          "type": "address"
        },
        {
          "internalType": "uint256",
          "name": "tokenId",
          "type": "uint256"
        },
        {
          "internalType": "bytes",
          "name": "_data",
          "type": "bytes"
        }
      ],
      "name": "safeTransferFrom",
      "outputs": [],
      "stateMutability": "nonpayable",
      "type": "function"
    },
    {
      "inputs": [
        {
          "internalType": "address",
          "name": "operator",
          "type": "address"
        },
        {
          "internalType": "bool",
          "name": "approved",
          "type": "bool"
        }
      ],
      "name": "setApprovalForAll",
      "outputs": [],
      "stateMutability": "nonpayable",
      "type": "function"
    },
    {
      "inputs": [
        {
          "internalType": "bytes4",
          "name": "interfaceId",
          "type": "bytes4"
        }
      ],
      "name": "supportsInterface",
      "outputs": [
        {
          "internalType": "bool",
          "name": "",
          "type": "bool"
        }
      ],
      "stateMutability": "view",
      "type": "function"
    },
    {
      "inputs": [],
      "name": "symbol",
      "outputs": [
        {
          "internalType": "string",
          "name": "",
          "type": "string"
        }
      ],
      "stateMutability": "view",
      "type": "function"
    },
    {
      "inputs": [
        {
          "internalType": "uint256",
          "name": "tokenId",
          "type": "uint256"
        }
      ],
      "name": "tokenURI",
      "outputs": [
        {
          "internalType": "string",
          "name": "",
          "type": "string"
        }
      ],
      "stateMutability": "view",
      "type": "function"
    },
    {
      "inputs": [
        {
          "internalType": "address",
          "name": "from",
          "type": "address"
        },
        {
          "internalType": "address",
          "name": "to",
          "type": "address"
        },
        {
          "internalType": "uint256",
          "name": "tokenId",
          "type": "uint256"
        }
      ],
      "name": "transferFrom",
      "outputs": [],
      "stateMutability": "nonpayable",
      "type": "function"
    },
    {
      "inputs": [
        {
          "internalType": "address",
          "name": "newOwner",
          "type": "address"
        }
      ],
      "name": "transferOwnership",
      "outputs": [],
      "stateMutability": "nonpayable",
      "type": "function"
    }
  ],
  "bytecode": "0x60806040523480156200001157600080fd5b506040518060400160405280600381526020017f4e465400000000000000000000000000000000000000000000000000000000008152506040518060400160405280600381526020017f4e46540000000000000000000000000000000000000000000000000000000000815250816000908051906020019062000096929190620001a6565b508060019080519060200190620000af929190620001a6565b505050620000d2620000c6620000d860201b60201c565b620000e060201b60201c565b620002bb565b600033905090565b6000600660009054906101000a900473ffffffffffffffffffffffffffffffffffffffff16905081600660006101000a81548173ffffffffffffffffffffffffffffffffffffffff021916908373ffffffffffffffffffffffffffffffffffffffff1602179055508173ffffffffffffffffffffffffffffffffffffffff168173ffffffffffffffffffffffffffffffffffffffff167f8be0079c531659141344cd1fd0a4f28419497f9722a3daafe3b4186f6b6457e060405160405180910390a35050565b828054620001b49062000256565b90600052602060002090601f016020900481019282620001d8576000855562000224565b82601f10620001f357805160ff191683800117855562000224565b8280016001018555821562000224579182015b828111156200022357825182559160200191906001019062000206565b5b50905062000233919062000237565b5090565b5b808211156200025257600081600090555060010162000238565b5090565b600060028204905060018216806200026f57607f821691505b602082108114156200028657620002856200028c565b5b50919050565b7f4e487b7100000000000000000000000000000000000000000000000000000000600052602260045260246000fd5b612b3380620002cb6000396000f3fe608060405234801561001057600080fd5b506004361061010b5760003560e01c806370a08231116100a2578063a22cb46511610071578063a22cb46514610292578063b88d4fde146102ae578063c87b56dd146102ca578063e985e9c5146102fa578063f2fde38b1461032a5761010b565b806370a082311461021c578063715018a61461024c5780638da5cb5b1461025657806395d89b41146102745761010b565b80631249c58b116100de5780631249c58b146101aa57806323b872dd146101b457806342842e0e146101d05780636352211e146101ec5761010b565b806301ffc9a71461011057806306fdde0314610140578063081812fc1461015e578063095ea7b31461018e575b600080fd5b61012a60048036038101906101259190611c37565b610346565b604051610137919061203d565b60405180910390f35b610148610428565b6040516101559190612058565b60405180910390f35b61017860048036038101906101739190611c89565b6104ba565b6040516101859190611fd6565b60405180910390f35b6101a860048036038101906101a39190611bfb565b61053f565b005b6101b2610657565b005b6101ce60048036038101906101c99190611af5565b61067c565b005b6101ea60048036038101906101e59190611af5565b6106dc565b005b61020660048036038101906102019190611c89565b6106fc565b6040516102139190611fd6565b60405180910390f35b61023660048036038101906102319190611a90565b6107ae565b604051610243919061227a565b60405180910390f35b610254610866565b005b61025e6108ee565b60405161026b9190611fd6565b60405180910390f35b61027c610918565b6040516102899190612058565b60405180910390f35b6102ac60048036038101906102a79190611bbf565b6109aa565b005b6102c860048036038101906102c39190611b44565b6109c0565b005b6102e460048036038101906102df9190611c89565b610a22565b6040516102f19190612058565b60405180910390f35b610314600480360381019061030f9190611ab9565b610ac9565b604051610321919061203d565b60405180910390f35b610344600480360381019061033f9190611a90565b610b5d565b005b60007f80ac58cd000000000000000000000000000000000000000000000000000000007bffffffffffffffffffffffffffffffffffffffffffffffffffffffff1916827bffffffffffffffffffffffffffffffffffffffffffffffffffffffff1916148061041157507f5b5e139f000000000000000000000000000000000000000000000000000000007bffffffffffffffffffffffffffffffffffffffffffffffffffffffff1916827bffffffffffffffffffffffffffffffffffffffffffffffffffffffff1916145b80610421575061042082610c55565b5b9050919050565b6060600080546104379061249f565b80601f01602080910402602001604051908101604052809291908181526020018280546104639061249f565b80156104b05780601f10610485576101008083540402835291602001916104b0565b820191906000526020600020905b81548152906001019060200180831161049357829003601f168201915b5050505050905090565b60006104c582610cbf565b610504576040517f08c379a00000000000000000000000000000000000000000000000000000000081526004016104fb906121da565b60405180910390fd5b6004600083815260200190815260200160002060009054906101000a900473ffffffffffffffffffffffffffffffffffffffff169050919050565b600061054a826106fc565b90508073ffffffffffffffffffffffffffffffffffffffff168373ffffffffffffffffffffffffffffffffffffffff1614156105bb576040517f08c379a00000000000000000000000000000000000000000000000000000000081526004016105b29061223a565b60405180910390fd5b8073ffffffffffffffffffffffffffffffffffffffff166105da610d2b565b73ffffffffffffffffffffffffffffffffffffffff161480610609575061060881610603610d2b565b610ac9565b5b610648576040517f08c379a000000000000000000000000000000000000000000000000000000000815260040161063f9061215a565b60405180910390fd5b6106528383610d33565b505050565b60006106636007610dec565b905061066f6007610dfa565b6106793382610e10565b50565b61068d610687610d2b565b82610e2e565b6106cc576040517f08c379a00000000000000000000000000000000000000000000000000000000081526004016106c39061225a565b60405180910390fd5b6106d7838383610f0c565b505050565b6106f7838383604051806020016040528060008152506109c0565b505050565b6000806002600084815260200190815260200160002060009054906101000a900473ffffffffffffffffffffffffffffffffffffffff169050600073ffffffffffffffffffffffffffffffffffffffff168173ffffffffffffffffffffffffffffffffffffffff1614156107a5576040517f08c379a000000000000000000000000000000000000000000000000000000000815260040161079c9061219a565b60405180910390fd5b80915050919050565b60008073ffffffffffffffffffffffffffffffffffffffff168273ffffffffffffffffffffffffffffffffffffffff16141561081f576040517f08c379a00000000000000000000000000000000000000000000000000000000081526004016108169061217a565b60405180910390fd5b600360008373ffffffffffffffffffffffffffffffffffffffff1673ffffffffffffffffffffffffffffffffffffffff168152602001908152602001600020549050919050565b61086e610d2b565b73ffffffffffffffffffffffffffffffffffffffff1661088c6108ee565b73ffffffffffffffffffffffffffffffffffffffff16146108e2576040517f08c379a00000000000000000000000000000000000000000000000000000000081526004016108d9906121fa565b60405180910390fd5b6108ec6000611173565b565b6000600660009054906101000a900473ffffffffffffffffffffffffffffffffffffffff16905090565b6060600180546109279061249f565b80601f01602080910402602001604051908101604052809291908181526020018280546109539061249f565b80156109a05780601f10610975576101008083540402835291602001916109a0565b820191906000526020600020905b81548152906001019060200180831161098357829003601f168201915b5050505050905090565b6109bc6109b5610d2b565b8383611239565b5050565b6109d16109cb610d2b565b83610e2e565b610a10576040517f08c379a0000000000000000000000000000000000000000000000000000000008152600401610a079061225a565b60405180910390fd5b610a1c848484846113a6565b50505050565b6060610a2d82610cbf565b610a6c576040517f08c379a0000000000000000000000000000000000000000000000000000000008152600401610a639061221a565b60405180910390fd5b6000610a76611402565b90506000815111610a965760405180602001604052806000815250610ac1565b80610aa084611419565b604051602001610ab1929190611fb2565b6040516020818303038152906040525b915050919050565b6000600560008473ffffffffffffffffffffffffffffffffffffffff1673ffffffffffffffffffffffffffffffffffffffff16815260200190815260200160002060008373ffffffffffffffffffffffffffffffffffffffff1673ffffffffffffffffffffffffffffffffffffffff16815260200190815260200160002060009054906101000a900460ff16905092915050565b610b65610d2b565b73ffffffffffffffffffffffffffffffffffffffff16610b836108ee565b73ffffffffffffffffffffffffffffffffffffffff1614610bd9576040517f08c379a0000000000000000000000000000000000000000000000000000000008152600401610bd0906121fa565b60405180910390fd5b600073ffffffffffffffffffffffffffffffffffffffff168173ffffffffffffffffffffffffffffffffffffffff161415610c49576040517f08c379a0000000000000000000000000000000000000000000000000000000008152600401610c409061209a565b60405180910390fd5b610c5281611173565b50565b60007f01ffc9a7000000000000000000000000000000000000000000000000000000007bffffffffffffffffffffffffffffffffffffffffffffffffffffffff1916827bffffffffffffffffffffffffffffffffffffffffffffffffffffffff1916149050919050565b60008073ffffffffffffffffffffffffffffffffffffffff166002600084815260200190815260200160002060009054906101000a900473ffffffffffffffffffffffffffffffffffffffff1673ffffffffffffffffffffffffffffffffffffffff1614159050919050565b600033905090565b816004600083815260200190815260200160002060006101000a81548173ffffffffffffffffffffffffffffffffffffffff021916908373ffffffffffffffffffffffffffffffffffffffff160217905550808273ffffffffffffffffffffffffffffffffffffffff16610da6836106fc565b73ffffffffffffffffffffffffffffffffffffffff167f8c5be1e5ebec7d5bd14f71427d1e84f3dd0314c0f7b2291e5b200ac8c7c3b92560405160405180910390a45050565b600081600001549050919050565b6001816000016000828254019250508190555050565b610e2a8282604051806020016040528060008152506115c6565b5050565b6000610e3982610cbf565b610e78576040517f08c379a0000000000000000000000000000000000000000000000000000000008152600401610e6f9061213a565b60405180910390fd5b6000610e83836106fc565b90508073ffffffffffffffffffffffffffffffffffffffff168473ffffffffffffffffffffffffffffffffffffffff161480610ec55750610ec48185610ac9565b5b80610f0357508373ffffffffffffffffffffffffffffffffffffffff16610eeb846104ba565b73ffffffffffffffffffffffffffffffffffffffff16145b91505092915050565b8273ffffffffffffffffffffffffffffffffffffffff16610f2c826106fc565b73ffffffffffffffffffffffffffffffffffffffff1614610f82576040517f08c379a0000000000000000000000000000000000000000000000000000000008152600401610f79906120ba565b60405180910390fd5b600073ffffffffffffffffffffffffffffffffffffffff168273ffffffffffffffffffffffffffffffffffffffff161415610ff2576040517f08c379a0000000000000000000000000000000000000000000000000000000008152600401610fe9906120fa565b60405180910390fd5b610ffd838383611621565b611008600082610d33565b6001600360008573ffffffffffffffffffffffffffffffffffffffff1673ffffffffffffffffffffffffffffffffffffffff168152602001908152602001600020600082825461105891906123b5565b925050819055506001600360008473ffffffffffffffffffffffffffffffffffffffff1673ffffffffffffffffffffffffffffffffffffffff16815260200190815260200160002060008282546110af919061232e565b92505081905550816002600083815260200190815260200160002060006101000a81548173ffffffffffffffffffffffffffffffffffffffff021916908373ffffffffffffffffffffffffffffffffffffffff160217905550808273ffffffffffffffffffffffffffffffffffffffff168473ffffffffffffffffffffffffffffffffffffffff167fddf252ad1be2c89b69c2b068fc378daa952ba7f163c4a11628f55a4df523b3ef60405160405180910390a461116e838383611626565b505050565b6000600660009054906101000a900473ffffffffffffffffffffffffffffffffffffffff16905081600660006101000a81548173ffffffffffffffffffffffffffffffffffffffff021916908373ffffffffffffffffffffffffffffffffffffffff1602179055508173ffffffffffffffffffffffffffffffffffffffff168173ffffffffffffffffffffffffffffffffffffffff167f8be0079c531659141344cd1fd0a4f28419497f9722a3daafe3b4186f6b6457e060405160405180910390a35050565b8173ffffffffffffffffffffffffffffffffffffffff168373ffffffffffffffffffffffffffffffffffffffff1614156112a8576040517f08c379a000000000000000000000000000000000000000000000000000000000815260040161129f9061211a565b60405180910390fd5b80600560008573ffffffffffffffffffffffffffffffffffffffff1673ffffffffffffffffffffffffffffffffffffffff16815260200190815260200160002060008473ffffffffffffffffffffffffffffffffffffffff1673ffffffffffffffffffffffffffffffffffffffff16815260200190815260200160002060006101000a81548160ff0219169083151502179055508173ffffffffffffffffffffffffffffffffffffffff168373ffffffffffffffffffffffffffffffffffffffff167f17307eab39ab6107e8899845ad3d59bd9653f200f220920489ca2b5937696c3183604051611399919061203d565b60405180910390a3505050565b6113b1848484610f0c565b6113bd8484848461162b565b6113fc576040517f08c379a00000000000000000000000000000000000000000000000000000000081526004016113f39061207a565b60405180910390fd5b50505050565b606060405180602001604052806000815250905090565b60606000821415611461576040518060400160405280600181526020017f300000000000000000000000000000000000000000000000000000000000000081525090506115c1565b600082905060005b6000821461149357808061147c90612502565b915050600a8261148c9190612384565b9150611469565b60008167ffffffffffffffff8111156114d5577f4e487b7100000000000000000000000000000000000000000000000000000000600052604160045260246000fd5b6040519080825280601f01601f1916602001820160405280156115075781602001600182028036833780820191505090505b5090505b600085146115ba5760018261152091906123b5565b9150600a8561152f919061254b565b603061153b919061232e565b60f81b818381518110611577577f4e487b7100000000000000000000000000000000000000000000000000000000600052603260045260246000fd5b60200101907effffffffffffffffffffffffffffffffffffffffffffffffffffffffffffff1916908160001a905350600a856115b39190612384565b945061150b565b8093505050505b919050565b6115d083836117c2565b6115dd600084848461162b565b61161c576040517f08c379a00000000000000000000000000000000000000000000000000000000081526004016116139061207a565b60405180910390fd5b505050565b505050565b505050565b600061164c8473ffffffffffffffffffffffffffffffffffffffff1661199c565b156117b5578373ffffffffffffffffffffffffffffffffffffffff1663150b7a02611675610d2b565b8786866040518563ffffffff1660e01b81526004016116979493929190611ff1565b602060405180830381600087803b1580156116b157600080fd5b505af19250505080156116e257506040513d601f19601f820116820180604052508101906116df9190611c60565b60015b611765573d8060008114611712576040519150601f19603f3d011682016040523d82523d6000602084013e611717565b606091505b5060008151141561175d576040517f08c379a00000000000000000000000000000000000000000000000000000000081526004016117549061207a565b60405180910390fd5b805181602001fd5b63150b7a0260e01b7bffffffffffffffffffffffffffffffffffffffffffffffffffffffff1916817bffffffffffffffffffffffffffffffffffffffffffffffffffffffff1916149150506117ba565b600190505b949350505050565b600073ffffffffffffffffffffffffffffffffffffffff168273ffffffffffffffffffffffffffffffffffffffff161415611832576040517f08c379a0000000000000000000000000000000000000000000000000000000008152600401611829906121ba565b60405180910390fd5b61183b81610cbf565b1561187b576040517f08c379a0000000000000000000000000000000000000000000000000000000008152600401611872906120da565b60405180910390fd5b61188760008383611621565b6001600360008473ffffffffffffffffffffffffffffffffffffffff1673ffffffffffffffffffffffffffffffffffffffff16815260200190815260200160002060008282546118d7919061232e565b92505081905550816002600083815260200190815260200160002060006101000a81548173ffffffffffffffffffffffffffffffffffffffff021916908373ffffffffffffffffffffffffffffffffffffffff160217905550808273ffffffffffffffffffffffffffffffffffffffff16600073ffffffffffffffffffffffffffffffffffffffff167fddf252ad1be2c89b69c2b068fc378daa952ba7f163c4a11628f55a4df523b3ef60405160405180910390a461199860008383611626565b5050565b6000808273ffffffffffffffffffffffffffffffffffffffff163b119050919050565b60006119d26119cd846122ba565b612295565b9050828152602081018484840111156119ea57600080fd5b6119f584828561245d565b509392505050565b600081359050611a0c81612aa1565b92915050565b600081359050611a2181612ab8565b92915050565b600081359050611a3681612acf565b92915050565b600081519050611a4b81612acf565b92915050565b600082601f830112611a6257600080fd5b8135611a728482602086016119bf565b91505092915050565b600081359050611a8a81612ae6565b92915050565b600060208284031215611aa257600080fd5b6000611ab0848285016119fd565b91505092915050565b60008060408385031215611acc57600080fd5b6000611ada858286016119fd565b9250506020611aeb858286016119fd565b9150509250929050565b600080600060608486031215611b0a57600080fd5b6000611b18868287016119fd565b9350506020611b29868287016119fd565b9250506040611b3a86828701611a7b565b9150509250925092565b60008060008060808587031215611b5a57600080fd5b6000611b68878288016119fd565b9450506020611b79878288016119fd565b9350506040611b8a87828801611a7b565b925050606085013567ffffffffffffffff811115611ba757600080fd5b611bb387828801611a51565b91505092959194509250565b60008060408385031215611bd257600080fd5b6000611be0858286016119fd565b9250506020611bf185828601611a12565b9150509250929050565b60008060408385031215611c0e57600080fd5b6000611c1c858286016119fd565b9250506020611c2d85828601611a7b565b9150509250929050565b600060208284031215611c4957600080fd5b6000611c5784828501611a27565b91505092915050565b600060208284031215611c7257600080fd5b6000611c8084828501611a3c565b91505092915050565b600060208284031215611c9b57600080fd5b6000611ca984828501611a7b565b91505092915050565b611cbb816123e9565b82525050565b611cca816123fb565b82525050565b6000611cdb826122eb565b611ce58185612301565b9350611cf581856020860161246c565b611cfe81612638565b840191505092915050565b6000611d14826122f6565b611d1e8185612312565b9350611d2e81856020860161246c565b611d3781612638565b840191505092915050565b6000611d4d826122f6565b611d578185612323565b9350611d6781856020860161246c565b80840191505092915050565b6000611d80603283612312565b9150611d8b82612649565b604082019050919050565b6000611da3602683612312565b9150611dae82612698565b604082019050919050565b6000611dc6602583612312565b9150611dd1826126e7565b604082019050919050565b6000611de9601c83612312565b9150611df482612736565b602082019050919050565b6000611e0c602483612312565b9150611e178261275f565b604082019050919050565b6000611e2f601983612312565b9150611e3a826127ae565b602082019050919050565b6000611e52602c83612312565b9150611e5d826127d7565b604082019050919050565b6000611e75603883612312565b9150611e8082612826565b604082019050919050565b6000611e98602a83612312565b9150611ea382612875565b604082019050919050565b6000611ebb602983612312565b9150611ec6826128c4565b604082019050919050565b6000611ede602083612312565b9150611ee982612913565b602082019050919050565b6000611f01602c83612312565b9150611f0c8261293c565b604082019050919050565b6000611f24602083612312565b9150611f2f8261298b565b602082019050919050565b6000611f47602f83612312565b9150611f52826129b4565b604082019050919050565b6000611f6a602183612312565b9150611f7582612a03565b604082019050919050565b6000611f8d603183612312565b9150611f9882612a52565b604082019050919050565b611fac81612453565b82525050565b6000611fbe8285611d42565b9150611fca8284611d42565b91508190509392505050565b6000602082019050611feb6000830184611cb2565b92915050565b60006080820190506120066000830187611cb2565b6120136020830186611cb2565b6120206040830185611fa3565b81810360608301526120328184611cd0565b905095945050505050565b60006020820190506120526000830184611cc1565b92915050565b600060208201905081810360008301526120728184611d09565b905092915050565b6000602082019050818103600083015261209381611d73565b9050919050565b600060208201905081810360008301526120b381611d96565b9050919050565b600060208201905081810360008301526120d381611db9565b9050919050565b600060208201905081810360008301526120f381611ddc565b9050919050565b6000602082019050818103600083015261211381611dff565b9050919050565b6000602082019050818103600083015261213381611e22565b9050919050565b6000602082019050818103600083015261215381611e45565b9050919050565b6000602082019050818103600083015261217381611e68565b9050919050565b6000602082019050818103600083015261219381611e8b565b9050919050565b600060208201905081810360008301526121b381611eae565b9050919050565b600060208201905081810360008301526121d381611ed1565b9050919050565b600060208201905081810360008301526121f381611ef4565b9050919050565b6000602082019050818103600083015261221381611f17565b9050919050565b6000602082019050818103600083015261223381611f3a565b9050919050565b6000602082019050818103600083015261225381611f5d565b9050919050565b6000602082019050818103600083015261227381611f80565b9050919050565b600060208201905061228f6000830184611fa3565b92915050565b600061229f6122b0565b90506122ab82826124d1565b919050565b6000604051905090565b600067ffffffffffffffff8211156122d5576122d4612609565b5b6122de82612638565b9050602081019050919050565b600081519050919050565b600081519050919050565b600082825260208201905092915050565b600082825260208201905092915050565b600081905092915050565b600061233982612453565b915061234483612453565b9250827fffffffffffffffffffffffffffffffffffffffffffffffffffffffffffffffff038211156123795761237861257c565b5b828201905092915050565b600061238f82612453565b915061239a83612453565b9250826123aa576123a96125ab565b5b828204905092915050565b60006123c082612453565b91506123cb83612453565b9250828210156123de576123dd61257c565b5b828203905092915050565b60006123f482612433565b9050919050565b60008115159050919050565b60007fffffffff0000000000000000000000000000000000000000000000000000000082169050919050565b600073ffffffffffffffffffffffffffffffffffffffff82169050919050565b6000819050919050565b82818337600083830152505050565b60005b8381101561248a57808201518184015260208101905061246f565b83811115612499576000848401525b50505050565b600060028204905060018216806124b757607f821691505b602082108114156124cb576124ca6125da565b5b50919050565b6124da82612638565b810181811067ffffffffffffffff821117156124f9576124f8612609565b5b80604052505050565b600061250d82612453565b91507fffffffffffffffffffffffffffffffffffffffffffffffffffffffffffffffff8214156125405761253f61257c565b5b600182019050919050565b600061255682612453565b915061256183612453565b925082612571576125706125ab565b5b828206905092915050565b7f4e487b7100000000000000000000000000000000000000000000000000000000600052601160045260246000fd5b7f4e487b7100000000000000000000000000000000000000000000000000000000600052601260045260246000fd5b7f4e487b7100000000000000000000000000000000000000000000000000000000600052602260045260246000fd5b7f4e487b7100000000000000000000000000000000000000000000000000000000600052604160045260246000fd5b6000601f19601f8301169050919050565b7f4552433732313a207472616e7366657220746f206e6f6e20455243373231526560008201527f63656976657220696d706c656d656e7465720000000000000000000000000000602082015250565b7f4f776e61626c653a206e6577206f776e657220697320746865207a65726f206160008201527f6464726573730000000000000000000000000000000000000000000000000000602082015250565b7f4552433732313a207472616e736665722066726f6d20696e636f72726563742060008201527f6f776e6572000000000000000000000000000000000000000000000000000000602082015250565b7f4552433732313a20746f6b656e20616c7265616479206d696e74656400000000600082015250565b7f4552433732313a207472616e7366657220746f20746865207a65726f2061646460008201527f7265737300000000000000000000000000000000000000000000000000000000602082015250565b7f4552433732313a20617070726f766520746f2063616c6c657200000000000000600082015250565b7f4552433732313a206f70657261746f7220717565727920666f72206e6f6e657860008201527f697374656e7420746f6b656e0000000000000000000000000000000000000000602082015250565b7f4552433732313a20617070726f76652063616c6c6572206973206e6f74206f7760008201527f6e6572206e6f7220617070726f76656420666f7220616c6c0000000000000000602082015250565b7f4552433732313a2062616c616e636520717565727920666f7220746865207a6560008201527f726f206164647265737300000000000000000000000000000000000000000000602082015250565b7f4552433732313a206f776e657220717565727920666f72206e6f6e657869737460008201527f656e7420746f6b656e0000000000000000000000000000000000000000000000602082015250565b7f4552433732313a206d696e7420746f20746865207a65726f2061646472657373600082015250565b7f4552433732313a20617070726f76656420717565727920666f72206e6f6e657860008201527f697374656e7420746f6b656e0000000000000000000000000000000000000000602082015250565b7f4f776e61626c653a2063616c6c6572206973206e6f7420746865206f776e6572600082015250565b7f4552433732314d657461646174613a2055524920717565727920666f72206e6f60008201527f6e6578697374656e7420746f6b656e0000000000000000000000000000000000602082015250565b7f4552433732313a20617070726f76616c20746f2063757272656e74206f776e6560008201527f7200000000000000000000000000000000000000000000000000000000000000602082015250565b7f4552433732313a207472616e736665722063616c6c6572206973206e6f74206f60008201527f776e6572206e6f7220617070726f766564000000000000000000000000000000602082015250565b612aaa816123e9565b8114612ab557600080fd5b50565b612ac1816123fb565b8114612acc57600080fd5b50565b612ad881612407565b8114612ae357600080fd5b50565b612aef81612453565b8114612afa57600080fd5b5056fea2646970667358221220733ca09e78301d7432659f689f938d743e67c8847bfae6a6eee3857fd0f5644564736f6c63430008040033",
  "linkReferences": {},
  "deployedLinkReferences": {}
}