{
  "_format": "hh-sol-artifact-1",
  "contractName": "ExampleLogic",
  "sourceName": "contracts/ExampleLogic.sol",
  "abi": [
    {
      "inputs": [
        {
          "internalType": "address[]",
          "name": "recipients",
          "type": "address[]"
        },
        {
          "internalType": "address",
          "name": "nftContract",
          "type": "address"
        }
      ],
      "stateMutability": "nonpayable",
      "type": "constructor"
    },
    {
      "inputs": [
        {
          "internalType": "address",
          "name": "_origin",
          "type": "address"
        },
        {
          "internalType": "address",
          "name": "_to",
          "type": "address"
        },
        {
          "internalType": "bytes",
          "name": "_data",
          "type": "bytes"
        }
      ],
      "name": "canSponsorTransactionFor",
      "outputs": [
        {
          "internalType": "bool",
          "name": "",
          "type": "bool"
        }
      ],
      "stateMutability": "view",
      "type": "function"
    }
  ],
  "bytecode": "0x608060405234801561001057600080fd5b506040516107c23803806107c2833981810160405281019061003291906101e3565b8160009080519060200190610048929190610091565b5080600160006101000a81548173ffffffffffffffffffffffffffffffffffffffff021916908373ffffffffffffffffffffffffffffffffffffffff1602179055505050610342565b82805482825590600052602060002090810192821561010a579160200282015b828111156101095782518260006101000a81548173ffffffffffffffffffffffffffffffffffffffff021916908373ffffffffffffffffffffffffffffffffffffffff160217905550916020019190600101906100b1565b5b509050610117919061011b565b5090565b5b8082111561013457600081600090555060010161011c565b5090565b600061014b6101468461025c565b610237565b9050808382526020820190508285602086028201111561016a57600080fd5b60005b8581101561019a578161018088826101a4565b84526020840193506020830192505060018101905061016d565b5050509392505050565b6000815190506101b38161032b565b92915050565b600082601f8301126101ca57600080fd5b81516101da848260208601610138565b91505092915050565b600080604083850312156101f657600080fd5b600083015167ffffffffffffffff81111561021057600080fd5b61021c858286016101b9565b925050602061022d858286016101a4565b9150509250929050565b6000610241610252565b905061024d82826102ba565b919050565b6000604051905090565b600067ffffffffffffffff821115610277576102766102eb565b5b602082029050602081019050919050565b60006102938261029a565b9050919050565b600073ffffffffffffffffffffffffffffffffffffffff82169050919050565b6102c38261031a565b810181811067ffffffffffffffff821117156102e2576102e16102eb565b5b80604052505050565b7f4e487b7100000000000000000000000000000000000000000000000000000000600052604160045260246000fd5b6000601f19601f8301169050919050565b61033481610288565b811461033f57600080fd5b50565b610471806103516000396000f3fe608060405234801561001057600080fd5b506004361061002b5760003560e01c8063681a3a5214610030575b600080fd5b61004a60048036038101906100459190610264565b610060565b6040516100579190610332565b60405180910390f35b600080600160009054906101000a900473ffffffffffffffffffffffffffffffffffffffff1673ffffffffffffffffffffffffffffffffffffffff166370a08231876040518263ffffffff1660e01b81526004016100be9190610317565b60206040518083038186803b1580156100d657600080fd5b505afa1580156100ea573d6000803e3d6000fd5b505050506040513d601f19601f8201168201806040525081019061010e91906102d0565b111561011d57600190506101e8565b60005b6000805490508110156101e2578473ffffffffffffffffffffffffffffffffffffffff166000828154811061017e577f4e487b7100000000000000000000000000000000000000000000000000000000600052603260045260246000fd5b9060005260206000200160009054906101000a900473ffffffffffffffffffffffffffffffffffffffff1673ffffffffffffffffffffffffffffffffffffffff1614156101cf5760019150506101e8565b80806101da90610395565b915050610120565b50600090505b949350505050565b6000813590506101ff8161040d565b92915050565b60008083601f84011261021757600080fd5b8235905067ffffffffffffffff81111561023057600080fd5b60208301915083600182028301111561024857600080fd5b9250929050565b60008151905061025e81610424565b92915050565b6000806000806060858703121561027a57600080fd5b6000610288878288016101f0565b9450506020610299878288016101f0565b935050604085013567ffffffffffffffff8111156102b657600080fd5b6102c287828801610205565b925092505092959194509250565b6000602082840312156102e257600080fd5b60006102f08482850161024f565b91505092915050565b6103028161034d565b82525050565b6103118161035f565b82525050565b600060208201905061032c60008301846102f9565b92915050565b60006020820190506103476000830184610308565b92915050565b60006103588261036b565b9050919050565b60008115159050919050565b600073ffffffffffffffffffffffffffffffffffffffff82169050919050565b6000819050919050565b60006103a08261038b565b91507fffffffffffffffffffffffffffffffffffffffffffffffffffffffffffffffff8214156103d3576103d26103de565b5b600182019050919050565b7f4e487b7100000000000000000000000000000000000000000000000000000000600052601160045260246000fd5b6104168161034d565b811461042157600080fd5b50565b61042d8161038b565b811461043857600080fd5b5056fea264697066735822122042aaf9d403a54577311edc22abec4704f789b13633ea04b98403b616035161e664736f6c63430008040033",
  "linkReferences": {},
  "deployedLinkReferences": {}
}