{
  "_format": "hh-sol-artifact-1",
  "contractName": "ExampleLogic",
  "sourceName": "contracts/ExampleLogic.sol",
  "abi": [
    {
      "inputs": [
        {
          "internalType": "address[]",
          "name": "recipients",
          "type": "address[]"
        }
      ],
      "stateMutability": "nonpayable",
      "type": "constructor"
    },
    {
      "inputs": [
        {
          "internalType": "address",
          "name": "_origin",
          "type": "address"
        },
        {
          "internalType": "address",
          "name": "_to",
          "type": "address"
        },
        {
          "internalType": "bytes",
          "name": "_data",
          "type": "bytes"
        }
      ],
      "name": "canSponsorTransactionFor",
      "outputs": [
        {
          "internalType": "bool",
          "name": "",
          "type": "bool"
        }
      ],
      "stateMutability": "view",
      "type": "function"
    }
  ],
  "bytecode": "0x608060405234801561001057600080fd5b50604051610636380380610636833981810160405281019061003291906101a1565b806000908051906020019061004892919061004f565b50506102ed565b8280548282559060005260206000209081019282156100c8579160200282015b828111156100c75782518260006101000a81548173ffffffffffffffffffffffffffffffffffffffff021916908373ffffffffffffffffffffffffffffffffffffffff1602179055509160200191906001019061006f565b5b5090506100d591906100d9565b5090565b5b808211156100f25760008160009055506001016100da565b5090565b600061010961010484610207565b6101e2565b9050808382526020820190508285602086028201111561012857600080fd5b60005b85811015610158578161013e8882610162565b84526020840193506020830192505060018101905061012b565b5050509392505050565b600081519050610171816102d6565b92915050565b600082601f83011261018857600080fd5b81516101988482602086016100f6565b91505092915050565b6000602082840312156101b357600080fd5b600082015167ffffffffffffffff8111156101cd57600080fd5b6101d984828501610177565b91505092915050565b60006101ec6101fd565b90506101f88282610265565b919050565b6000604051905090565b600067ffffffffffffffff82111561022257610221610296565b5b602082029050602081019050919050565b600061023e82610245565b9050919050565b600073ffffffffffffffffffffffffffffffffffffffff82169050919050565b61026e826102c5565b810181811067ffffffffffffffff8211171561028d5761028c610296565b5b80604052505050565b7f4e487b7100000000000000000000000000000000000000000000000000000000600052604160045260246000fd5b6000601f19601f8301169050919050565b6102df81610233565b81146102ea57600080fd5b50565b61033a806102fc6000396000f3fe608060405234801561001057600080fd5b506004361061002b5760003560e01c8063681a3a5214610030575b600080fd5b61004a60048036038101906100459190610197565b610060565b6040516100579190610212565b60405180910390f35b600080600090505b60008054905081101561012a578473ffffffffffffffffffffffffffffffffffffffff16600082815481106100c6577f4e487b7100000000000000000000000000000000000000000000000000000000600052603260045260246000fd5b9060005260206000200160009054906101000a900473ffffffffffffffffffffffffffffffffffffffff1673ffffffffffffffffffffffffffffffffffffffff161415610117576001915050610130565b808061012290610275565b915050610068565b50600090505b949350505050565b600081359050610147816102ed565b92915050565b60008083601f84011261015f57600080fd5b8235905067ffffffffffffffff81111561017857600080fd5b60208301915083600182028301111561019057600080fd5b9250929050565b600080600080606085870312156101ad57600080fd5b60006101bb87828801610138565b94505060206101cc87828801610138565b935050604085013567ffffffffffffffff8111156101e957600080fd5b6101f58782880161014d565b925092505092959194509250565b61020c8161023f565b82525050565b60006020820190506102276000830184610203565b92915050565b60006102388261024b565b9050919050565b60008115159050919050565b600073ffffffffffffffffffffffffffffffffffffffff82169050919050565b6000819050919050565b60006102808261026b565b91507fffffffffffffffffffffffffffffffffffffffffffffffffffffffffffffffff8214156102b3576102b26102be565b5b600182019050919050565b7f4e487b7100000000000000000000000000000000000000000000000000000000600052601160045260246000fd5b6102f68161022d565b811461030157600080fd5b5056fea2646970667358221220dbf535158e6fb3538e0b81fd179f0781f3b0f2e788eeaae82748f0abb8295d7364736f6c63430008040033",
  "linkReferences": {},
  "deployedLinkReferences": {}
}